{
  "transactions": [
    {
      "hash": "0x4024ab7041a0adb560a2d9e27393b345347bdbc2844fb615e587a6ea03dad4e7",
      "transactionType": "CALL",
      "contractName": null,
      "contractAddress": "0xbbfe759fd5425b1708e5426334f30fbec74aa9df",
      "function": "addSource(uint64,address)",
      "arguments": [
        "16015286601757825753",
        "0x1a670A5D1320842e450aAC2fc4a75038765Da24d"
      ],
      "transaction": {
        "from": "0xe0bc2bac6d8abf359a265d7e362a5a271821ccc1",
        "to": "0xbbfe759fd5425b1708e5426334f30fbec74aa9df",
        "gas": "0x1148e",
        "value": "0x0",
        "input": "0x39a0e548000000000000000000000000000000000000000000000000de41ba4fc9d91ad90000000000000000000000001a670a5d1320842e450aac2fc4a75038765da24d",
        "nonce": "0x1",
        "chainId": "0xaa36a7"
      },
      "additionalContracts": [],
      "isFixedGasLimit": false
    }
  ],
  "receipts": [
    {
      "status": "0x1",
      "cumulativeGasUsed": "0xe347db",
      "logs": [
        {
          "address": "0xbbfe759fd5425b1708e5426334f30fbec74aa9df",
          "topics": [
            "0x81cb42a9f70567fb825ec9e1671a4e7934e6efcf77099d7a018afd8868a7165d",
            "0x000000000000000000000000000000000000000000000000de41ba4fc9d91ad9",
            "0x0000000000000000000000001a670a5d1320842e450aac2fc4a75038765da24d"
          ],
          "data": "0x",
          "blockHash": "0x89be3bc3d3fbe49151966be21bd2db4148696097b3fe49f0e03a7e5e39478424",
          "blockNumber": "0x92fc64",
          "blockTimestamp": "0x69180474",
          "transactionHash": "0x4024ab7041a0adb560a2d9e27393b345347bdbc2844fb615e587a6ea03dad4e7",
          "transactionIndex": "0x57",
          "logIndex": "0x94",
          "removed": false
        }
      ],
      "logsBloom": "0x00000000002000000000000000000000000000000000000001000000000000000000000000004000000000101000000000000000000000000000000000000000400000000000000000000000002000000000000000000000000000000000000000000000000000000000000000010000000000000000400000000000000000000000000000000000000000000000200000000020000000000000000000000000000000000000000000000000000000000000000000000000000000000000000000000000000000000000000000000800000000000000000000000000000000000000000000000000000000000000000000000000000000000000000000000000",
      "type": "0x2",
      "transactionHash": "0x4024ab7041a0adb560a2d9e27393b345347bdbc2844fb615e587a6ea03dad4e7",
      "transactionIndex": "0x57",
      "blockHash": "0x89be3bc3d3fbe49151966be21bd2db4148696097b3fe49f0e03a7e5e39478424",
      "blockNumber": "0x92fc64",
      "gasUsed": "0xbd19",
      "effectiveGasPrice": "0xf4249",
      "from": "0xe0bc2bac6d8abf359a265d7e362a5a271821ccc1",
      "to": "0xbbfe759fd5425b1708e5426334f30fbec74aa9df",
      "contractAddress": null
    }
  ],
  "libraries": [],
  "pending": [],
  "returns": {},
  "timestamp": 1763181685560,
  "chain": 11155111,
  "commit": "c17e730"
}