{
  "transactions": [
    {
      "hash": "0x54f1661aa0573167175f6fc65f874bfd8fa442a56cf7a6cf20eee21ba20ea72f",
      "transactionType": "CALL",
      "contractName": null,
      "contractAddress": "0x14fec046e6ea093a2787d165b1975130277885c5",
      "function": "addSource(uint64,address)",
      "arguments": [
        "10344971235874465080",
        "0x1513Fd5BeE73ce52D5C7FfFc3bC941d11b8575Da"
      ],
      "transaction": {
        "from": "0xcbc1f6a3deed358cfece6829b57b38514d084627",
        "to": "0x14fec046e6ea093a2787d165b1975130277885c5",
        "gas": "0x1148e",
        "value": "0x0",
        "input": "0x39a0e5480000000000000000000000000000000000000000000000008f90b8876dee65380000000000000000000000001513fd5bee73ce52d5c7fffc3bc941d11b8575da",
        "nonce": "0x1",
        "chainId": "0x14a34"
      },
      "additionalContracts": [],
      "isFixedGasLimit": false
    }
  ],
  "receipts": [
    {
      "status": "0x1",
      "cumulativeGasUsed": "0x5ca6e5",
      "logs": [
        {
          "address": "0x14fec046e6ea093a2787d165b1975130277885c5",
          "topics": [
            "0x81cb42a9f70567fb825ec9e1671a4e7934e6efcf77099d7a018afd8868a7165d",
            "0x0000000000000000000000000000000000000000000000008f90b8876dee6538",
            "0x0000000000000000000000001513fd5bee73ce52d5c7fffc3bc941d11b8575da"
          ],
          "data": "0x",
          "blockHash": "0xea7abf4fbdef6fa1cf01d2a2edab6db04c4425b518ff2266c8660c98c1b21e2f",
          "blockNumber": "0x201c795",
          "blockTimestamp": "0x6916ee0a",
          "transactionHash": "0x54f1661aa0573167175f6fc65f874bfd8fa442a56cf7a6cf20eee21ba20ea72f",
          "transactionIndex": "0xe",
          "logIndex": "0x50",
          "removed": false
        }
      ],
      "logsBloom": "0x01000000002000000000000000000000000000000000000000000000000000000000000000000000008000001000000000000000000000000000000000000000000010000000000000000000000000000000000400000000000000000000200000000000000000000000000000000000000000000000400000000000000000004000000000000200000000000000000800000000000000000000000000000000000000000000000000000000000000000000000000000000000000000000000000000000000000000000000000000000000000000400000000000000000000000000000000000000000000000000000000000000000000000000000000000000",
      "type": "0x2",
      "transactionHash": "0x54f1661aa0573167175f6fc65f874bfd8fa442a56cf7a6cf20eee21ba20ea72f",
      "transactionIndex": "0xe",
      "blockHash": "0xea7abf4fbdef6fa1cf01d2a2edab6db04c4425b518ff2266c8660c98c1b21e2f",
      "blockNumber": "0x201c795",
      "gasUsed": "0xbd19",
      "effectiveGasPrice": "0xf428e",
      "from": "0xcbc1f6a3deed358cfece6829b57b38514d084627",
      "to": "0x14fec046e6ea093a2787d165b1975130277885c5",
      "contractAddress": null,
      "l1BaseFeeScalar": "0x44d",
      "l1BlobBaseFee": "0x1",
      "l1BlobBaseFeeScalar": "0xa118b",
      "l1Fee": "0x5b",
      "l1GasPrice": "0xc",
      "l1GasUsed": "0x640"
    }
  ],
  "libraries": [],
  "pending": [],
  "returns": {},
  "timestamp": 1763110409567,
  "chain": 84532,
  "commit": "c17e730"
}