{
  "transactions": [
    {
      "hash": "0x62996673c306e9604e2136ff7ca01188d1fc392d1e666f8e85388ee824eb0afa",
      "transactionType": "CALL",
      "contractName": null,
      "contractAddress": "0x1513fd5bee73ce52d5c7fffc3bc941d11b8575da",
      "function": "setHelper(address)",
      "arguments": [
        "0x14fec046E6ea093A2787D165B1975130277885c5"
      ],
      "transaction": {
        "from": "0xcbc1f6a3deed358cfece6829b57b38514d084627",
        "to": "0x1513fd5bee73ce52d5c7fffc3bc941d11b8575da",
        "gas": "0x10f4f",
        "value": "0x0",
        "input": "0x986ccc7f00000000000000000000000014fec046e6ea093a2787d165b1975130277885c5",
        "nonce": "0x7",
        "chainId": "0x279f"
      },
      "additionalContracts": [],
      "isFixedGasLimit": false
    }
  ],
  "receipts": [
    {
      "status": "0x1",
      "cumulativeGasUsed": "0xc6cc87",
      "logs": [
        {
          "address": "0x1513fd5bee73ce52d5c7fffc3bc941d11b8575da",
          "topics": [
            "0x20e752df2d1d9e69c7eb8f9e96973ff9b6f881a03503a3b5cac668cafb9a1ac8",
            "0x00000000000000000000000014fec046e6ea093a2787d165b1975130277885c5"
          ],
          "data": "0x",
          "blockHash": "0x2243a5ff706799ee419bfc19c7e3f52e80d73227f8dd96af503df32b9bd15c67",
          "blockNumber": "0x2f14820",
          "blockTimestamp": "0x6916edbb",
          "transactionHash": "0x62996673c306e9604e2136ff7ca01188d1fc392d1e666f8e85388ee824eb0afa",
          "transactionIndex": "0x1fa",
          "logIndex": "0x1d",
          "removed": false
        }
      ],
      "logsBloom": "0x00000000000000000000000000000000000000000010000000000000000000000000800000000000000000000000000000000000000000000000000000000000000000000000100000000000000020000000000000000000000000000000000000000000000000000000000000000000000000000000000000000000000000000000000000000000000000100000000000000000000000000000000000000000000000000000000000000000000000000001000000000000000000200000000000000000000000000000000000000000000000000000400000000000000000000000000000010000000000000000000000000000000000000000000000000000",
      "type": "0x2",
      "transactionHash": "0x62996673c306e9604e2136ff7ca01188d1fc392d1e666f8e85388ee824eb0afa",
      "transactionIndex": "0x1fa",
      "blockHash": "0x2243a5ff706799ee419bfc19c7e3f52e80d73227f8dd96af503df32b9bd15c67",
      "blockNumber": "0x2f14820",
      "gasUsed": "0x10f4f",
      "effectiveGasPrice": "0x174876e801",
      "from": "0xcbc1f6a3deed358cfece6829b57b38514d084627",
      "to": "0x1513fd5bee73ce52d5c7fffc3bc941d11b8575da",
      "contractAddress": null
    }
  ],
  "libraries": [],
  "pending": [],
  "returns": {},
  "timestamp": 1763110333256,
  "chain": 10143,
  "commit": "c17e730"
}